:020000040000fa
:080000000002040000000000f2
:020000040000fa
:04000800f002000002
:020000040000fa
:04000c00f0020000fe
:020000040000fa
:04001000f0020000fa
:020000040000fa
:04001400f0020000f6
:020000040000fa
:04001800f0020000f2
:020000040000fa
:04001c00f0020000ee
:020000040000fa
:04002000f0020000ea
:020000040000fa
:04002400f0020000e6
:020000040000fa
:04002800f0020000e2
:020000040000fa
:04002c00f0020000de
:020000040000fa
:04003000f0020000da
:020000040000fa
:04003400f0020000d6
:020000040000fa
:04003800f0020000d2
:020000040000fa
:04003c00f0020000ce
:020000040000fa
:04004000f0020000ca
:020000040000fa
:04004400f0020000c6
:020000040000fa
:04004800f0020000c2
:020000040000fa
:04004c00f0020000be
:020000040000fa
:04005000f0020000ba
:020000040000fa
:04005400f0020000b6
:020000040000fa
:04005800f0020000b2
:020000040000fa
:04005c00c8020000d6
:020000040000fa
:04006000f0020000aa
:020000040000fa
:04006400f0020000a6
:020000040000fa
:04006800f0020000a2
:020000040000fa
:04006c00f00200009e
:020000040000fa
:04007000f00200009a
:020000040000fa
:04007400f002000096
:020000040000fa
:04007800f002000092
:020000040000fa
:04007c00f00200008e
:020000040000fa
:04008000f00200008a
:020000040000fa
:04008400f002000086
:020000040000fa
:04008800f002000082
:020000040000fa
:04008c00f00200007e
:020000040000fa
:04009000f00200007a
:020000040000fa
:04009400f002000076
:020000040000fa
:04009800f002000072
:020000040000fa
:04009c00f00200006e
:020000040000fa
:0400a000f00200006a
:020000040000fa
:0400a400f002000066
:020000040000fa
:0400a800f002000062
:020000040000fa
:0400ac00f00200005e
:020000040000fa
:0400b000f00200005a
:020000040000fa
:0400b400f002000056
:020000040000fa
:0400b800f002000052
:020000040000fa
:0400bc00f00200004e
:020000040000fa
:0400c000f00200004a
:020000040000fa
:0400c400f002000046
:020000040000fa
:0400c800f002000042
:020000040000fa
:0400cc00f00200003e
:020000040000fa
:0400d000f00200003a
:020000040000fa
:0400d400f002000036
:020000040000fa
:0400d800f002000032
:020000040000fa
:0400dc00f00200002e
:020000040000fa
:0400e000f00200002a
:020000040000fa
:0400e400f002000026
:020000040000fa
:0400e800f002000022
:020000040000fa
:0400ec00f00200001e
:020000040000fa
:0400f000f00200001a
:020000040000fa
:0400f400f002000016
:020000040000fa
:0400f800f002000012
:020000040000fa
:0400fc00f00200000e
:020000040000fa
:04010000f002000009
:020000040000fa
:04010400f002000005
:020000040000fa
:04010800f002000001
:020000040000fa
:04010c00f0020000fd
:020000040000fa
:04011000f0020000f9
:020000040000fa
:04011400f0020000f5
:020000040000fa
:04011800f0020000f1
:020000040000fa
:04011c00f0020000ed
:020000040000fa
:04012000f0020000e9
:020000040000fa
:04012400f0020000e5
:020000040000fa
:04012800f0020000e1
:020000040000fa
:04012c00f0020000dd
:020000040000fa
:04013000f0020000d9
:020000040000fa
:04013400f0020000d5
:020000040000fa
:04013800f0020000d1
:020000040000fa
:04013c00f0020000cd
:020000040000fa
:04014000f0020000c9
:020000040000fa
:04014400f0020000c5
:020000040000fa
:04014800f0020000c1
:020000040000fa
:04020800f002000000
:020000040000fa
:04020c00f0020000fc
:020000040000fa
:04021000f0020000f8
:020000040000fa
:04021400f0020000f4
:020000040000fa
:04021800f0020000f0
:020000040000fa
:04021c00f0020000ec
:020000040000fa
:04022000f0020000e8
:020000040000fa
:04022400f0020000e4
:020000040000fa
:04022800f0020000e0
:020000040000fa
:04022c00f0020000dc
:020000040000fa
:04023000f0020000d8
:020000040000fa
:04023400f0020000d4
:020000040000fa
:04023800f0020000d0
:020000040000fa
:04023c00f0020000cc
:020000040000fa
:04024000f0020000c8
:020000040000fa
:04024400f0020000c4
:020000040000fa
:04024800f0020000c0
:020000040000fa
:04024c00f0020000bc
:020000040000fa
:04025000f0020000b8
:020000040000fa
:04025400f0020000b4
:020000040000fa
:04025800f0020000b0
:020000040000fa
:04025c00c8020000d4
:020000040000fa
:04026000f0020000a8
:020000040000fa
:04026400f0020000a4
:020000040000fa
:04026800f0020000a0
:020000040000fa
:04026c00f00200009c
:020000040000fa
:04027000f002000098
:020000040000fa
:04027400f002000094
:020000040000fa
:04027800f002000090
:020000040000fa
:04027c00f00200008c
:020000040000fa
:04028000f002000088
:020000040000fa
:04028400f002000084
:020000040000fa
:04028800f002000080
:020000040000fa
:04028c00f00200007c
:020000040000fa
:04029000f002000078
:020000040000fa
:04029400f002000074
:020000040000fa
:04029800f002000070
:020000040000fa
:04029c00f00200006c
:020000040000fa
:0402a000f002000068
:020000040000fa
:0402a400f002000064
:020000040000fa
:0402a800f002000060
:020000040000fa
:0402ac00f00200005c
:020000040000fa
:0402b000f002000058
:020000040000fa
:0402b400f002000054
:020000040000fa
:0402b800f002000050
:020000040000fa
:0402bc00f00200004c
:020000040000fa
:0402c000f002000048
:020000040000fa
:0402c400f002000044
:020000040000fa
:0402c800f002000040
:020000040000fa
:0402cc00f00200003c
:020000040000fa
:0402d000f002000038
:020000040000fa
:0402d400f002000034
:020000040000fa
:0402d800f002000030
:020000040000fa
:0402dc00f00200002c
:020000040000fa
:0402e000f002000028
:020000040000fa
:0402e400f002000024
:020000040000fa
:0402e800f002000020
:020000040000fa
:0402ec00f00200001c
:020000040000fa
:0402f000f002000018
:020000040000fa
:0402f400f002000014
:020000040000fa
:0402f800f002000010
:020000040000fa
:0402fc00f00200000c
:020000040000fa
:04030000f002000007
:020000040000fa
:04030400f002000003
:020000040000fa
:04030800f0020000ff
:020000040000fa
:04030c00f0020000fb
:020000040000fa
:04031000f0020000f7
:020000040000fa
:04031400f0020000f3
:020000040000fa
:04031800f0020000ef
:020000040000fa
:04031c00f0020000eb
:020000040000fa
:04032000f0020000e7
:020000040000fa
:04032400f0020000e3
:020000040000fa
:04032800f0020000df
:020000040000fa
:04032c00f0020000db
:020000040000fa
:04033000f0020000d7
:020000040000fa
:04033400f0020000d3
:020000040000fa
:04033800f0020000cf
:020000040000fa
:04033c00f0020000cb
:020000040000fa
:04034000f0020000c7
:020000040000fa
:04034400f0020000c3
:020000040000fa
:04034800f0020000bf
:020000040000fa
:10040000ef8020000e7f22000e0188000000000017
:10041000000020000000e000020032000001200087
:1004200020028800140007006f0007000000e000b1
:1004300003003a0080622000010020000200370023
:100440000000200001002000810f70000100320038
:1004500014000700000020000000e000020032004d
:10046000000002000000000014060200000000006e
:100470000040da000000fe004440a9008000200097
:100480000000e0000300320000002000a00188000e
:100490004440a800000006008a1f78008b1f7800e7
:1004a0000000060091018800800478000000eb0045
:1004b0001a003700e284440032a0b4009905ba0063
:1004c000e284440032a0b4009906ba00e2844400f9
:1004d00032a0b4000006eb00476fde00fd07b2005b
:1004e000636ce10003003a00ebff07000000eb0043
:1004f0000a003700606ce10004003a00005deb0088
:100500008b05e900fdff3e00040037006168e10053
:10051000010032000086eb000b00070019c7ba008b
:100520001905ba000e04e00003003a000a00e000da
:10053000e0ff3a0000000600fe07b2009e018800be
:100540008a047800f5ff3700395dba008b05e900b1
:100550000c003200295dba008b05e900080032006a
:100560000c00e00003003a00e284440032a0b40032
:10057000f5ff370019ddba008b05e900faff3a00f4
:100580008904e800e184440032a0b40000000600c1
:100590003600f800809fbe00829fbe00849fbe0090
:1005a000869fbe003400f80000002000a0018800f3
:1005b0000000fa0085a0a90000188000fa000700da
:1005c0000080fa003400f9004f03be004f02be0065
:1005d0004f01be004f00be003600f900004006008b
:0c05e0000040da000000fe0000000500f2
:020000040000fa
:1005ec00686500006c6c00006f0000003c000000af
:020000040000fa
:1005fc000200fa00000f7800020037007e3e09006e
:10060c00000000001e00780000f0a7000000ea00c7
:10061c000000ea004f00de00004078001e0fe900e9
:10062c000004e000f5ff3a000080fa00000006002c
:10063c000200fa00004f78000602a800000000003b
:10064c0030108000610060000000e000fcff3a0008
:10065c008620a900800720001010880000000000f0
:10066c0030048000620060000000e000fcff3200fb
:10067c004110800000002400008060000000e000b9
:10068c00f7ff3a008620a9000222ef0000000000cc
:10069c0030048000620060000000e000fcff3200cb
:1006ac004110800000002400008060000000e00089
:1006bc00f7ff3a008620a9001e00fb0010108800ee
:1006cc000000000030048000620060000000e000c8
:1006dc00fcff32004110800000002400008060000c
:1006ec000000e000f7ff3a000642a80000000000fe
:1006fc0030108000640060000000e000fcff3a0055
:10070c000080fa00000006000000fa0010c0b300e0
:10071c00c7ff07000080fa00000006000000fa0086
:10072c000622ef00d0092000201088008620a900a6
:10073c0007e2a80080022000adff0700cac2a90092
:10074c0080022000aaff0700cac2a8008002200075
:10075c00a7ff0700a0c3b300b5ff070090c0b3000c
:10076c00b3ff070060c0b300b1ff0700e0c1b300e6
:10077c00afff070090c3b300adff0700b0c1b300db
:10078c00abff0700e0c6b300a9ff070060c5b300cc
:10079c00a7ff0700a0c7b300a5ff070080c3b300e5
:1007ac00a3ff0700f0c0b300a1ff0700800c2000de
:1007bc008fff0700a0c3b3009dff070090c0b300dc
:1007cc009bff0700a0c1b30099ff0700c0c3b30093
:1007dc0097ff07001000200085ff0700caff0700e5
:1007ec000080fa00000006000600fa0010079800ce
:1007fc00210798000000eb00000f78001e0090000d
:10080c00c500dd002e0090000080400080007800c4
:10081c000170a000010f78001e00780000407800e5
:10082c0083ff07000080fa00000006000200fa00b7
:10083c00004f78000602a800000000003010800075
:10084c00610060000000e000fcff3a008620a90077
:10085c005040800010108800000000003004800020
:10086c00620060000000e000fcff320041108000dc
:10087c0000002400008060000000e000f7ff3a0058
:10088c008620a90000042000101088000000000041
:10089c0030048000620060000000e000fcff3200c9
:1008ac004110800000002400008060000000e00087
:1008bc00f7ff3a008620a9001e00fb0010108800ec
:1008cc000000000030048000620060000000e000c6
:1008dc00fcff32004110800000002400008060000a
:1008ec000000e000f7ff3a000642a80000000000fc
:1008fc0030108000640060000000e000fcff3a0053
:10090c000080fa00000006000400fa0010079800ae
:10091c000000eb00000f78008000eb000000eb0003
:10092c00b1ff0700060037001e0078009e00900003
:10093c000080400010407800bcff07001e0fe8004c
:10094c001e0078009e00900000804000104078004f
:10095c000004e000f4ff3a000080fa0000000600fa
:10096c000000fa00213a8000f08f2f000080600018
:10097c00203a8800f0ff290060198800c022ef009f
:10098c00c822ef00c942a800c962a80069e0a8000b
:10099c006a00a8000080fa00000006000200fa00bd
:1009ac00000f780040408000028020008000400052
:1009bc00810041009e0878000000e800404088005b
:1009cc0040408000e30f5000010034000828ef0085
:1009dc000080fa00000006000000fa0021e3a900e4
:1009ec00c002a800c022a800c842a800c862a80083
:1009fc00c982a800c9a2a800c9c2a800c9e2a8005f
:100a0c002c03a90011198000f0ff21000080600068
:100a1c001019880020c0b30024e3b700011980002e
:100a2c00f0f12f00008060000060a0000019880029
:100a3c0021198000f00f2e00008060000090a000b3
:100a4c002019880001198000f0cf2f000080600071
:100a5c00001988002043a8001119800030fc2f00d9
:100a6c00008060001019880021e3a80085a0a9006f
:100a7c0095a0a8000a21ef001221ef009108800038
:100a8c00f0fc2f00008060009008880080d02300cc
:100a9c007008880013e1a8000080fa00000006002e
:100aac000400fa000000eb00000f78000000eb00df
:100abc00100798000000000020048000680060000f
:100acc000000e000fcff32008460a9003600070043
:100adc00000f7800601320009e007800808f50007b
:100aec000200340010c3b3000100370000c3b30090
:100afc002047980051168000008020000080600084
:100b0c000000e00001003a00fffe070051168000d3
:100b1c0000402000008060000000e00002003a006d
:100b2c000e80e80078ff07000080fa000000060045
:100b3c000000fa000421ef009086210010088800c4
:100b4c008460a900210880000003200001007000cf
:100b5c00200888009460a9000021ef0005e1a8009e
:100b6c000080fa00000006000200fa000000eb0012
:100b7c00000f780007003700018020001e0078006d
:100b8c0000004000008040008000eb00010878006d
:100b9c001e0fe8001e007800e30f5000f6ff340033
:100bac000080fa00000006000600fa006000b800a1
:100bbc00008fbe000000eb00200798000b003700f0
:100bcc00018020002e0090000000400000804000ba
:100bdc0010007800cf80de001e0f40005e974800aa
:100bec002e0090000000e800200798002e009000d6
:100bfc00e30f5000f2ff34001e00be004e09dd0072
:100c0c004200de0000007100c208de00008fbe0052
:100c1c001e0078000080fa00000006000000fa00b8
:100c2c004fff0700bdfe07006bff0700c0ff07006a
:100c3c00cdff0700602f280033ff070098ff070047
:040c4c00feff370070
:020000040000fa
:100c50000a08000004000000020000007800800084
:100c600000000000000800000a0000000000000072
:040c70000000000080
:020000040000fa
:020000040001f9
:0457f8000ff90000a5
:020000040000fa
:020000040001f9
:0457fc007f3f0000eb
:00000001FF
